{
  "_format": "hh-sol-artifact-1",
  "contractName": "Greeter",
  "sourceName": "contracts/Greeter.sol",
  "abi": [
    {
      "inputs": [],
      "name": "greeting",
      "outputs": [
        {
          "internalType": "string",
          "name": "",
          "type": "string"
        }
      ],
      "stateMutability": "view",
      "type": "function"
    },
    {
      "inputs": [
        {
          "internalType": "string",
          "name": "_greeting",
          "type": "string"
        }
      ],
      "name": "setGreeting",
      "outputs": [],
      "stateMutability": "nonpayable",
      "type": "function"
    }
  ],
  "bytecode": "0x60806040526040518060400160405280600b81526020017f48656c6c6f20576f726c640000000000000000000000000000000000000000008152506000908051906020019061004f929190610062565b5034801561005c57600080fd5b50610166565b82805461006e90610105565b90600052602060002090601f01602090048101928261009057600085556100d7565b82601f106100a957805160ff19168380011785556100d7565b828001600101855582156100d7579182015b828111156100d65782518255916020019190600101906100bb565b5b5090506100e491906100e8565b5090565b5b808211156101015760008160009055506001016100e9565b5090565b6000600282049050600182168061011d57607f821691505b6020821081141561013157610130610137565b5b50919050565b7f4e487b7100000000000000000000000000000000000000000000000000000000600052602260045260246000fd5b610664806101756000396000f3fe608060405234801561001057600080fd5b50600436106100365760003560e01c8063a41368621461003b578063ef690cc014610057575b600080fd5b6100556004803603810190610050919061039d565b610075565b005b61005f61013c565b60405161006c9190610417565b60405180910390f35b61012260405180606001604052806023815260200161060c602391396000805461009e90610539565b80601f01602080910402602001604051908101604052809291908181526020018280546100ca90610539565b80156101175780601f106100ec57610100808354040283529160200191610117565b820191906000526020600020905b8154815290600101906020018083116100fa57829003601f168201915b5050505050836101ca565b8060009080519060200190610138929190610292565b5050565b6000805461014990610539565b80601f016020809104026020016040519081016040528092919081815260200182805461017590610539565b80156101c25780601f10610197576101008083540402835291602001916101c2565b820191906000526020600020905b8154815290600101906020018083116101a557829003601f168201915b505050505081565b6102648383836040516024016101e293929190610439565b6040516020818303038152906040527f2ced7cef000000000000000000000000000000000000000000000000000000007bffffffffffffffffffffffffffffffffffffffffffffffffffffffff19166020820180517bffffffffffffffffffffffffffffffffffffffffffffffffffffffff8381831617835250505050610269565b505050565b60008151905060006a636f6e736f6c652e6c6f679050602083016000808483855afa5050505050565b82805461029e90610539565b90600052602060002090601f0160209004810192826102c05760008555610307565b82601f106102d957805160ff1916838001178555610307565b82800160010185558215610307579182015b828111156103065782518255916020019190600101906102eb565b5b5090506103149190610318565b5090565b5b80821115610331576000816000905550600101610319565b5090565b6000610348610343846104aa565b610485565b90508281526020810184848401111561036057600080fd5b61036b8482856104f7565b509392505050565b600082601f83011261038457600080fd5b8135610394848260208601610335565b91505092915050565b6000602082840312156103af57600080fd5b600082013567ffffffffffffffff8111156103c957600080fd5b6103d584828501610373565b91505092915050565b60006103e9826104db565b6103f381856104e6565b9350610403818560208601610506565b61040c816105fa565b840191505092915050565b6000602082019050818103600083015261043181846103de565b905092915050565b6000606082019050818103600083015261045381866103de565b9050818103602083015261046781856103de565b9050818103604083015261047b81846103de565b9050949350505050565b600061048f6104a0565b905061049b828261056b565b919050565b6000604051905090565b600067ffffffffffffffff8211156104c5576104c46105cb565b5b6104ce826105fa565b9050602081019050919050565b600081519050919050565b600082825260208201905092915050565b82818337600083830152505050565b60005b83811015610524578082015181840152602081019050610509565b83811115610533576000848401525b50505050565b6000600282049050600182168061055157607f821691505b602082108114156105655761056461059c565b5b50919050565b610574826105fa565b810181811067ffffffffffffffff82111715610593576105926105cb565b5b80604052505050565b7f4e487b7100000000000000000000000000000000000000000000000000000000600052602260045260246000fd5b7f4e487b7100000000000000000000000000000000000000000000000000000000600052604160045260246000fd5b6000601f19601f830116905091905056fe4368616e67696e67206772656574696e672066726f6d202725732720746f2027257327a264697066735822122008b769dbc6b13ee2f752a87f06640d6a9ffe44fc5f6fbbd97571263e033d4fe964736f6c63430008040033",
  "linkReferences": {},
  "deployedLinkReferences": {}
}